{"abi":[{"type":"constructor","inputs":[{"name":"name","type":"string","internalType":"string"},{"name":"symbol","type":"string","internalType":"string"}],"stateMutability":"nonpayable"},{"type":"function","name":"DEFAULT_ADMIN_ROLE","inputs":[],"outputs":[{"name":"","type":"bytes32","internalType":"bytes32"}],"stateMutability":"view"},{"type":"function","name":"MINTER_ROLE","inputs":[],"outputs":[{"name":"","type":"bytes32","internalType":"bytes32"}],"stateMutability":"view"},{"type":"function","name":"approve","inputs":[{"name":"to","type":"address","internalType":"address"},{"name":"tokenId","type":"uint256","internalType":"uint256"}],"outputs":[],"stateMutability":"nonpayable"},{"type":"function","name":"balanceOf","inputs":[{"name":"owner","type":"address","internalType":"address"}],"outputs":[{"name":"","type":"uint256","internalType":"uint256"}],"stateMutability":"view"},{"type":"function","name":"getApproved","inputs":[{"name":"tokenId","type":"uint256","internalType":"uint256"}],"outputs":[{"name":"","type":"address","internalType":"address"}],"stateMutability":"view"},{"type":"function","name":"getRoleAdmin","inputs":[{"name":"role","type":"bytes32","internalType":"bytes32"}],"outputs":[{"name":"","type":"bytes32","internalType":"bytes32"}],"stateMutability":"view"},{"type":"function","name":"grantRole","inputs":[{"name":"role","type":"bytes32","internalType":"bytes32"},{"name":"account","type":"address","internalType":"address"}],"outputs":[],"stateMutability":"nonpayable"},{"type":"function","name":"hasRole","inputs":[{"name":"role","type":"bytes32","internalType":"bytes32"},{"name":"account","type":"address","internalType":"address"}],"outputs":[{"name":"","type":"bool","internalType":"bool"}],"stateMutability":"view"},{"type":"function","name":"hasVoted","inputs":[{"name":"voter","type":"address","internalType":"address"}],"outputs":[{"name":"","type":"bool","internalType":"bool"}],"stateMutability":"view"},{"type":"function","name":"isApprovedForAll","inputs":[{"name":"owner","type":"address","internalType":"address"},{"name":"operator","type":"address","internalType":"address"}],"outputs":[{"name":"","type":"bool","internalType":"bool"}],"stateMutability":"view"},{"type":"function","name":"mint","inputs":[{"name":"voter","type":"address","internalType":"address"}],"outputs":[],"stateMutability":"nonpayable"},{"type":"function","name":"name","inputs":[],"outputs":[{"name":"","type":"string","internalType":"string"}],"stateMutability":"view"},{"type":"function","name":"ownerOf","inputs":[{"name":"tokenId","type":"uint256","internalType":"uint256"}],"outputs":[{"name":"","type":"address","internalType":"address"}],"stateMutability":"view"},{"type":"function","name":"renounceRole","inputs":[{"name":"role","type":"bytes32","internalType":"bytes32"},{"name":"callerConfirmation","type":"address","internalType":"address"}],"outputs":[],"stateMutability":"nonpayable"},{"type":"function","name":"revokeRole","inputs":[{"name":"role","type":"bytes32","internalType":"bytes32"},{"name":"account","type":"address","internalType":"address"}],"outputs":[],"stateMutability":"nonpayable"},{"type":"function","name":"safeTransferFrom","inputs":[{"name":"from","type":"address","internalType":"address"},{"name":"to","type":"address","internalType":"address"},{"name":"tokenId","type":"uint256","internalType":"uint256"}],"outputs":[],"stateMutability":"nonpayable"},{"type":"function","name":"safeTransferFrom","inputs":[{"name":"from","type":"address","internalType":"address"},{"name":"to","type":"address","internalType":"address"},{"name":"tokenId","type":"uint256","internalType":"uint256"},{"name":"data","type":"bytes","internalType":"bytes"}],"outputs":[],"stateMutability":"nonpayable"},{"type":"function","name":"setApprovalForAll","inputs":[{"name":"operator","type":"address","internalType":"address"},{"name":"approved","type":"bool","internalType":"bool"}],"outputs":[],"stateMutability":"nonpayable"},{"type":"function","name":"setVotingSystem","inputs":[{"name":"votingSystem","type":"address","internalType":"address"}],"outputs":[],"stateMutability":"nonpayable"},{"type":"function","name":"supportsInterface","inputs":[{"name":"interfaceId","type":"bytes4","internalType":"bytes4"}],"outputs":[{"name":"","type":"bool","internalType":"bool"}],"stateMutability":"view"},{"type":"function","name":"symbol","inputs":[],"outputs":[{"name":"","type":"string","internalType":"string"}],"stateMutability":"view"},{"type":"function","name":"tokenURI","inputs":[{"name":"tokenId","type":"uint256","internalType":"uint256"}],"outputs":[{"name":"","type":"string","internalType":"string"}],"stateMutability":"view"},{"type":"function","name":"transferFrom","inputs":[{"name":"from","type":"address","internalType":"address"},{"name":"to","type":"address","internalType":"address"},{"name":"tokenId","type":"uint256","internalType":"uint256"}],"outputs":[],"stateMutability":"nonpayable"},{"type":"event","name":"Approval","inputs":[{"name":"owner","type":"address","indexed":true,"internalType":"address"},{"name":"approved","type":"address","indexed":true,"internalType":"address"},{"name":"tokenId","type":"uint256","indexed":true,"internalType":"uint256"}],"anonymous":false},{"type":"event","name":"ApprovalForAll","inputs":[{"name":"owner","type":"address","indexed":true,"internalType":"address"},{"name":"operator","type":"address","indexed":true,"internalType":"address"},{"name":"approved","type":"bool","indexed":false,"internalType":"bool"}],"anonymous":false},{"type":"event","name":"RoleAdminChanged","inputs":[{"name":"role","type":"bytes32","indexed":true,"internalType":"bytes32"},{"name":"previousAdminRole","type":"bytes32","indexed":true,"internalType":"bytes32"},{"name":"newAdminRole","type":"bytes32","indexed":true,"internalType":"bytes32"}],"anonymous":false},{"type":"event","name":"RoleGranted","inputs":[{"name":"role","type":"bytes32","indexed":true,"internalType":"bytes32"},{"name":"account","type":"address","indexed":true,"internalType":"address"},{"name":"sender","type":"address","indexed":true,"internalType":"address"}],"anonymous":false},{"type":"event","name":"RoleRevoked","inputs":[{"name":"role","type":"bytes32","indexed":true,"internalType":"bytes32"},{"name":"account","type":"address","indexed":true,"internalType":"address"},{"name":"sender","type":"address","indexed":true,"internalType":"address"}],"anonymous":false},{"type":"event","name":"Transfer","inputs":[{"name":"from","type":"address","indexed":true,"internalType":"address"},{"name":"to","type":"address","indexed":true,"internalType":"address"},{"name":"tokenId","type":"uint256","indexed":true,"internalType":"uint256"}],"anonymous":false},{"type":"error","name":"AccessControlBadConfirmation","inputs":[]},{"type":"error","name":"AccessControlUnauthorizedAccount","inputs":[{"name":"account","type":"address","internalType":"address"},{"name":"neededRole","type":"bytes32","internalType":"bytes32"}]},{"type":"error","name":"AlreadyVoted","inputs":[{"name":"voter","type":"address","internalType":"address"}]},{"type":"error","name":"ERC721IncorrectOwner","inputs":[{"name":"sender","type":"address","internalType":"address"},{"name":"tokenId","type":"uint256","internalType":"uint256"},{"name":"owner","type":"address","internalType":"address"}]},{"type":"error","name":"ERC721InsufficientApproval","inputs":[{"name":"operator","type":"address","internalType":"address"},{"name":"tokenId","type":"uint256","internalType":"uint256"}]},{"type":"error","name":"ERC721InvalidApprover","inputs":[{"name":"approver","type":"address","internalType":"address"}]},{"type":"error","name":"ERC721InvalidOperator","inputs":[{"name":"operator","type":"address","internalType":"address"}]},{"type":"error","name":"ERC721InvalidOwner","inputs":[{"name":"owner","type":"address","internalType":"address"}]},{"type":"error","name":"ERC721InvalidReceiver","inputs":[{"name":"receiver","type":"address","internalType":"address"}]},{"type":"error","name":"ERC721InvalidSender","inputs":[{"name":"sender","type":"address","internalType":"address"}]},{"type":"error","name":"ERC721NonexistentToken","inputs":[{"name":"tokenId","type":"uint256","internalType":"uint256"}]},{"type":"error","name":"NotMinter","inputs":[]}],"bytecode":{"object":"0x608060405234801562000010575f80fd5b5060405162002a7238038062002a72833981810160405281019062000036919062000366565b8181815f908162000048919062000620565b5080600190816200005a919062000620565b505050620000715f801b336200007a60201b60201c565b50505062000704565b5f6200008d83836200017660201b60201c565b6200016c57600160065f8581526020019081526020015f205f015f8473ffffffffffffffffffffffffffffffffffffffff1673ffffffffffffffffffffffffffffffffffffffff1681526020019081526020015f205f6101000a81548160ff02191690831515021790555062000108620001da60201b60201c565b73ffffffffffffffffffffffffffffffffffffffff168273ffffffffffffffffffffffffffffffffffffffff16847f2f8788117e7eff1d82e926ec794901d17c78024a50270940304540a733656f0d60405160405180910390a46001905062000170565b5f90505b92915050565b5f60065f8481526020019081526020015f205f015f8373ffffffffffffffffffffffffffffffffffffffff1673ffffffffffffffffffffffffffffffffffffffff1681526020019081526020015f205f9054906101000a900460ff16905092915050565b5f33905090565b5f604051905090565b5f80fd5b5f80fd5b5f80fd5b5f80fd5b5f601f19601f8301169050919050565b7f4e487b71000000000000000000000000000000000000000000000000000000005f52604160045260245ffd5b6200024282620001fa565b810181811067ffffffffffffffff821117156200026457620002636200020a565b5b80604052505050565b5f62000278620001e1565b905062000286828262000237565b919050565b5f67ffffffffffffffff821115620002a857620002a76200020a565b5b620002b382620001fa565b9050602081019050919050565b5f5b83811015620002df578082015181840152602081019050620002c2565b5f8484015250505050565b5f62000300620002fa846200028b565b6200026d565b9050828152602081018484840111156200031f576200031e620001f6565b5b6200032c848285620002c0565b509392505050565b5f82601f8301126200034b576200034a620001f2565b5b81516200035d848260208601620002ea565b91505092915050565b5f80604083850312156200037f576200037e620001ea565b5b5f83015167ffffffffffffffff8111156200039f576200039e620001ee565b5b620003ad8582860162000334565b925050602083015167ffffffffffffffff811115620003d157620003d0620001ee565b5b620003df8582860162000334565b9150509250929050565b5f81519050919050565b7f4e487b71000000000000000000000000000000000000000000000000000000005f52602260045260245ffd5b5f60028204905060018216806200043857607f821691505b6020821081036200044e576200044d620003f3565b5b50919050565b5f819050815f5260205f209050919050565b5f6020601f8301049050919050565b5f82821b905092915050565b5f60088302620004b27fffffffffffffffffffffffffffffffffffffffffffffffffffffffffffffffff8262000475565b620004be868362000475565b95508019841693508086168417925050509392505050565b5f819050919050565b5f819050919050565b5f6200050862000502620004fc84620004d6565b620004df565b620004d6565b9050919050565b5f819050919050565b6200052383620004e8565b6200053b62000532826200050f565b84845462000481565b825550505050565b5f90565b6200055162000543565b6200055e81848462000518565b505050565b5b818110156200058557620005795f8262000547565b60018101905062000564565b5050565b601f821115620005d4576200059e8162000454565b620005a98462000466565b81016020851015620005b9578190505b620005d1620005c88562000466565b83018262000563565b50505b505050565b5f82821c905092915050565b5f620005f65f1984600802620005d9565b1980831691505092915050565b5f620006108383620005e5565b9150826002028217905092915050565b6200062b82620003e9565b67ffffffffffffffff8111156200064757620006466200020a565b5b62000653825462000420565b6200066082828562000589565b5f60209050601f83116001811462000696575f841562000681578287015190505b6200068d858262000603565b865550620006fc565b601f198416620006a68662000454565b5f5b82811015620006cf57848901518255600182019150602085019450602081019050620006a8565b86831015620006ef5784890151620006eb601f891682620005e5565b8355505b6001600288020188555050505b505050505050565b61236080620007125f395ff3fe608060405234801561000f575f80fd5b506004361061014b575f3560e01c80636352211e116100c1578063a22cb4651161007a578063a22cb465146103bd578063b88d4fde146103d9578063c87b56dd146103f5578063d539139314610425578063d547741f14610443578063e985e9c51461045f5761014b565b80636352211e146102d55780636a6278421461030557806370a082311461032157806391d148541461035157806395d89b4114610381578063a217fddf1461039f5761014b565b806323b872dd1161011357806323b872dd14610219578063248a9ca3146102355780632a664d0a146102655780632f2ff15d1461028157806336568abe1461029d57806342842e0e146102b95761014b565b806301ffc9a71461014f57806306fdde031461017f578063081812fc1461019d578063095ea7b3146101cd57806309eef43e146101e9575b5f80fd5b61016960048036038101906101649190611afb565b61048f565b6040516101769190611b40565b60405180910390f35b6101876104a0565b6040516101949190611be3565b60405180910390f35b6101b760048036038101906101b29190611c36565b61052f565b6040516101c49190611ca0565b60405180910390f35b6101e760048036038101906101e29190611ce3565b61054a565b005b61020360048036038101906101fe9190611d21565b610560565b6040516102109190611b40565b60405180910390f35b610233600480360381019061022e9190611d4c565b6105b2565b005b61024f600480360381019061024a9190611dcf565b6106b1565b60405161025c9190611e09565b60405180910390f35b61027f600480360381019061027a9190611d21565b6106ce565b005b61029b60048036038101906102969190611e22565b610709565b005b6102b760048036038101906102b29190611e22565b61072b565b005b6102d360048036038101906102ce9190611d4c565b6107a6565b005b6102ef60048036038101906102ea9190611c36565b6107c5565b6040516102fc9190611ca0565b60405180910390f35b61031f600480360381019061031a9190611d21565b6107d6565b005b61033b60048036038101906103369190611d21565b610908565b6040516103489190611e6f565b60405180910390f35b61036b60048036038101906103669190611e22565b6109be565b6040516103789190611b40565b60405180910390f35b610389610a22565b6040516103969190611be3565b60405180910390f35b6103a7610ab2565b6040516103b49190611e09565b60405180910390f35b6103d760048036038101906103d29190611eb2565b610ab8565b005b6103f360048036038101906103ee919061201c565b610ace565b005b61040f600480360381019061040a9190611c36565b610af3565b60405161041c9190611be3565b60405180910390f35b61042d610b1f565b60405161043a9190611e09565b60405180910390f35b61045d60048036038101906104589190611e22565b610b43565b005b6104796004803603810190610474919061209c565b610b65565b6040516104869190611b40565b60405180910390f35b5f61049982610bf3565b9050919050565b60605f80546104ae90612107565b80601f01602080910402602001604051908101604052809291908181526020018280546104da90612107565b80156105255780601f106104fc57610100808354040283529160200191610525565b820191905f5260205f20905b81548152906001019060200180831161050857829003601f168201915b5050505050905090565b5f61053982610c6c565b5061054382610cf2565b9050919050565b61055c8282610557610d2b565b610d32565b5050565b5f60085f8373ffffffffffffffffffffffffffffffffffffffff1673ffffffffffffffffffffffffffffffffffffffff1681526020019081526020015f205f9054906101000a900460ff169050919050565b5f73ffffffffffffffffffffffffffffffffffffffff168273ffffffffffffffffffffffffffffffffffffffff1603610622575f6040517f64a0ae920000000000000000000000000000000000000000000000000000000081526004016106199190611ca0565b60405180910390fd5b5f6106358383610630610d2b565b610d44565b90508373ffffffffffffffffffffffffffffffffffffffff168173ffffffffffffffffffffffffffffffffffffffff16146106ab578382826040517f64283d7b0000000000000000000000000000000000000000000000000000000081526004016106a293929190612137565b60405180910390fd5b50505050565b5f60065f8381526020019081526020015f20600101549050919050565b5f801b6106da81610f4f565b6107047f9f2df0fed2c77648de5860a4cc508cd0818c85b8b8a1ab4ceeef8d981c8956a683610f63565b505050565b610712826106b1565b61071b81610f4f565b6107258383610f63565b50505050565b610733610d2b565b73ffffffffffffffffffffffffffffffffffffffff168173ffffffffffffffffffffffffffffffffffffffff1614610797576040517f6697b23200000000000000000000000000000000000000000000000000000000815260040160405180910390fd5b6107a1828261104d565b505050565b6107c083838360405180602001604052805f815250610ace565b505050565b5f6107cf82610c6c565b9050919050565b7f9f2df0fed2c77648de5860a4cc508cd0818c85b8b8a1ab4ceeef8d981c8956a661080081610f4f565b60085f8373ffffffffffffffffffffffffffffffffffffffff1673ffffffffffffffffffffffffffffffffffffffff1681526020019081526020015f205f9054906101000a900460ff161561088c57816040517fd449d6740000000000000000000000000000000000000000000000000000000081526004016108839190611ca0565b60405180910390fd5b600160085f8473ffffffffffffffffffffffffffffffffffffffff1673ffffffffffffffffffffffffffffffffffffffff1681526020019081526020015f205f6101000a81548160ff02191690831515021790555060075f8154809291906108f390612199565b919050555061090482600754611137565b5050565b5f8073ffffffffffffffffffffffffffffffffffffffff168273ffffffffffffffffffffffffffffffffffffffff1603610979575f6040517f89c62b640000000000000000000000000000000000000000000000000000000081526004016109709190611ca0565b60405180910390fd5b60035f8373ffffffffffffffffffffffffffffffffffffffff1673ffffffffffffffffffffffffffffffffffffffff1681526020019081526020015f20549050919050565b5f60065f8481526020019081526020015f205f015f8373ffffffffffffffffffffffffffffffffffffffff1673ffffffffffffffffffffffffffffffffffffffff1681526020019081526020015f205f9054906101000a900460ff16905092915050565b606060018054610a3190612107565b80601f0160208091040260200160405190810160405280929190818152602001828054610a5d90612107565b8015610aa85780601f10610a7f57610100808354040283529160200191610aa8565b820191905f5260205f20905b815481529060010190602001808311610a8b57829003601f168201915b5050505050905090565b5f801b81565b610aca610ac3610d2b565b8383611154565b5050565b610ad98484846105b2565b610aed610ae4610d2b565b858585856112bd565b50505050565b6060610afe82610c6c565b5060405180606001604052806021815260200161230a602191399050919050565b7f9f2df0fed2c77648de5860a4cc508cd0818c85b8b8a1ab4ceeef8d981c8956a681565b610b4c826106b1565b610b5581610f4f565b610b5f838361104d565b50505050565b5f60055f8473ffffffffffffffffffffffffffffffffffffffff1673ffffffffffffffffffffffffffffffffffffffff1681526020019081526020015f205f8373ffffffffffffffffffffffffffffffffffffffff1673ffffffffffffffffffffffffffffffffffffffff1681526020019081526020015f205f9054906101000a900460ff16905092915050565b5f7f7965db0b000000000000000000000000000000000000000000000000000000007bffffffffffffffffffffffffffffffffffffffffffffffffffffffff1916827bffffffffffffffffffffffffffffffffffffffffffffffffffffffff19161480610c655750610c6482611469565b5b9050919050565b5f80610c778361154a565b90505f73ffffffffffffffffffffffffffffffffffffffff168173ffffffffffffffffffffffffffffffffffffffff1603610ce957826040517f7e273289000000000000000000000000000000000000000000000000000000008152600401610ce09190611e6f565b60405180910390fd5b80915050919050565b5f60045f8381526020019081526020015f205f9054906101000a900473ffffffffffffffffffffffffffffffffffffffff169050919050565b5f33905090565b610d3f8383836001611583565b505050565b5f80610d4f8461154a565b90505f73ffffffffffffffffffffffffffffffffffffffff168373ffffffffffffffffffffffffffffffffffffffff1614610d9057610d8f818486611742565b5b5f73ffffffffffffffffffffffffffffffffffffffff168173ffffffffffffffffffffffffffffffffffffffff1614610e1b57610dcf5f855f80611583565b600160035f8373ffffffffffffffffffffffffffffffffffffffff1673ffffffffffffffffffffffffffffffffffffffff1681526020019081526020015f205f82825403925050819055505b5f73ffffffffffffffffffffffffffffffffffffffff168573ffffffffffffffffffffffffffffffffffffffff1614610e9a57600160035f8773ffffffffffffffffffffffffffffffffffffffff1673ffffffffffffffffffffffffffffffffffffffff1681526020019081526020015f205f82825401925050819055505b8460025f8681526020019081526020015f205f6101000a81548173ffffffffffffffffffffffffffffffffffffffff021916908373ffffffffffffffffffffffffffffffffffffffff160217905550838573ffffffffffffffffffffffffffffffffffffffff168273ffffffffffffffffffffffffffffffffffffffff167fddf252ad1be2c89b69c2b068fc378daa952ba7f163c4a11628f55a4df523b3ef60405160405180910390a4809150509392505050565b610f6081610f5b610d2b565b611805565b50565b5f610f6e83836109be565b61104357600160065f8581526020019081526020015f205f015f8473ffffffffffffffffffffffffffffffffffffffff1673ffffffffffffffffffffffffffffffffffffffff1681526020019081526020015f205f6101000a81548160ff021916908315150217905550610fe0610d2b565b73ffffffffffffffffffffffffffffffffffffffff168273ffffffffffffffffffffffffffffffffffffffff16847f2f8788117e7eff1d82e926ec794901d17c78024a50270940304540a733656f0d60405160405180910390a460019050611047565b5f90505b92915050565b5f61105883836109be565b1561112d575f60065f8581526020019081526020015f205f015f8473ffffffffffffffffffffffffffffffffffffffff1673ffffffffffffffffffffffffffffffffffffffff1681526020019081526020015f205f6101000a81548160ff0219169083151502179055506110ca610d2b565b73ffffffffffffffffffffffffffffffffffffffff168273ffffffffffffffffffffffffffffffffffffffff16847ff6391f5c32d9c69d2a47ea670b442974b53935d1edc7fd64eb21e047a839171b60405160405180910390a460019050611131565b5f90505b92915050565b611150828260405180602001604052805f815250611856565b5050565b5f73ffffffffffffffffffffffffffffffffffffffff168273ffffffffffffffffffffffffffffffffffffffff16036111c457816040517f5b08ba180000000000000000000000000000000000000000000000000000000081526004016111bb9190611ca0565b60405180910390fd5b8060055f8573ffffffffffffffffffffffffffffffffffffffff1673ffffffffffffffffffffffffffffffffffffffff1681526020019081526020015f205f8473ffffffffffffffffffffffffffffffffffffffff1673ffffffffffffffffffffffffffffffffffffffff1681526020019081526020015f205f6101000a81548160ff0219169083151502179055508173ffffffffffffffffffffffffffffffffffffffff168373ffffffffffffffffffffffffffffffffffffffff167f17307eab39ab6107e8899845ad3d59bd9653f200f220920489ca2b5937696c31836040516112b09190611b40565b60405180910390a3505050565b5f8373ffffffffffffffffffffffffffffffffffffffff163b1115611462578273ffffffffffffffffffffffffffffffffffffffff1663150b7a02868685856040518563ffffffff1660e01b815260040161131b9493929190612232565b6020604051808303815f875af192505050801561135657506040513d601f19601f820116820180604052508101906113539190612290565b60015b6113d7573d805f8114611384576040519150601f19603f3d011682016040523d82523d5f602084013e611389565b606091505b505f8151036113cf57836040517f64a0ae920000000000000000000000000000000000000000000000000000000081526004016113c69190611ca0565b60405180910390fd5b805160208201fd5b63150b7a0260e01b7bffffffffffffffffffffffffffffffffffffffffffffffffffffffff1916817bffffffffffffffffffffffffffffffffffffffffffffffffffffffff19161461146057836040517f64a0ae920000000000000000000000000000000000000000000000000000000081526004016114579190611ca0565b60405180910390fd5b505b5050505050565b5f7f80ac58cd000000000000000000000000000000000000000000000000000000007bffffffffffffffffffffffffffffffffffffffffffffffffffffffff1916827bffffffffffffffffffffffffffffffffffffffffffffffffffffffff1916148061153357507f5b5e139f000000000000000000000000000000000000000000000000000000007bffffffffffffffffffffffffffffffffffffffffffffffffffffffff1916827bffffffffffffffffffffffffffffffffffffffffffffffffffffffff1916145b80611543575061154282611879565b5b9050919050565b5f60025f8381526020019081526020015f205f9054906101000a900473ffffffffffffffffffffffffffffffffffffffff169050919050565b80806115bb57505f73ffffffffffffffffffffffffffffffffffffffff168273ffffffffffffffffffffffffffffffffffffffff1614155b156116ed575f6115ca84610c6c565b90505f73ffffffffffffffffffffffffffffffffffffffff168373ffffffffffffffffffffffffffffffffffffffff161415801561163457508273ffffffffffffffffffffffffffffffffffffffff168173ffffffffffffffffffffffffffffffffffffffff1614155b801561164757506116458184610b65565b155b1561168957826040517fa9fbf51f0000000000000000000000000000000000000000000000000000000081526004016116809190611ca0565b60405180910390fd5b81156116eb57838573ffffffffffffffffffffffffffffffffffffffff168273ffffffffffffffffffffffffffffffffffffffff167f8c5be1e5ebec7d5bd14f71427d1e84f3dd0314c0f7b2291e5b200ac8c7c3b92560405160405180910390a45b505b8360045f8581526020019081526020015f205f6101000a81548173ffffffffffffffffffffffffffffffffffffffff021916908373ffffffffffffffffffffffffffffffffffffffff16021790555050505050565b61174d8383836118e2565b611800575f73ffffffffffffffffffffffffffffffffffffffff168373ffffffffffffffffffffffffffffffffffffffff16036117c157806040517f7e2732890000000000000000000000000000000000000000000000000000000081526004016117b89190611e6f565b60405180910390fd5b81816040517f177e802f0000000000000000000000000000000000000000000000000000000081526004016117f79291906122bb565b60405180910390fd5b505050565b61180f82826109be565b6118525780826040517fe2517d3f0000000000000000000000000000000000000000000000000000000081526004016118499291906122e2565b60405180910390fd5b5050565b61186083836119a2565b61187461186b610d2b565b5f8585856112bd565b505050565b5f7f01ffc9a7000000000000000000000000000000000000000000000000000000007bffffffffffffffffffffffffffffffffffffffffffffffffffffffff1916827bffffffffffffffffffffffffffffffffffffffffffffffffffffffff1916149050919050565b5f8073ffffffffffffffffffffffffffffffffffffffff168373ffffffffffffffffffffffffffffffffffffffff161415801561199957508273ffffffffffffffffffffffffffffffffffffffff168473ffffffffffffffffffffffffffffffffffffffff16148061195a57506119598484610b65565b5b8061199857508273ffffffffffffffffffffffffffffffffffffffff1661198083610cf2565b73ffffffffffffffffffffffffffffffffffffffff16145b5b90509392505050565b5f73ffffffffffffffffffffffffffffffffffffffff168273ffffffffffffffffffffffffffffffffffffffff1603611a12575f6040517f64a0ae92000000000000000000000000000000000000000000000000000000008152600401611a099190611ca0565b60405180910390fd5b5f611a1e83835f610d44565b90505f73ffffffffffffffffffffffffffffffffffffffff168173ffffffffffffffffffffffffffffffffffffffff1614611a90575f6040517f73c6ac6e000000000000000000000000000000000000000000000000000000008152600401611a879190611ca0565b60405180910390fd5b505050565b5f604051905090565b5f80fd5b5f80fd5b5f7fffffffff0000000000000000000000000000000000000000000000000000000082169050919050565b611ada81611aa6565b8114611ae4575f80fd5b50565b5f81359050611af581611ad1565b92915050565b5f60208284031215611b1057611b0f611a9e565b5b5f611b1d84828501611ae7565b91505092915050565b5f8115159050919050565b611b3a81611b26565b82525050565b5f602082019050611b535f830184611b31565b92915050565b5f81519050919050565b5f82825260208201905092915050565b5f5b83811015611b90578082015181840152602081019050611b75565b5f8484015250505050565b5f601f19601f8301169050919050565b5f611bb582611b59565b611bbf8185611b63565b9350611bcf818560208601611b73565b611bd881611b9b565b840191505092915050565b5f6020820190508181035f830152611bfb8184611bab565b905092915050565b5f819050919050565b611c1581611c03565b8114611c1f575f80fd5b50565b5f81359050611c3081611c0c565b92915050565b5f60208284031215611c4b57611c4a611a9e565b5b5f611c5884828501611c22565b91505092915050565b5f73ffffffffffffffffffffffffffffffffffffffff82169050919050565b5f611c8a82611c61565b9050919050565b611c9a81611c80565b82525050565b5f602082019050611cb35f830184611c91565b92915050565b611cc281611c80565b8114611ccc575f80fd5b50565b5f81359050611cdd81611cb9565b92915050565b5f8060408385031215611cf957611cf8611a9e565b5b5f611d0685828601611ccf565b9250506020611d1785828601611c22565b9150509250929050565b5f60208284031215611d3657611d35611a9e565b5b5f611d4384828501611ccf565b91505092915050565b5f805f60608486031215611d6357611d62611a9e565b5b5f611d7086828701611ccf565b9350506020611d8186828701611ccf565b9250506040611d9286828701611c22565b9150509250925092565b5f819050919050565b611dae81611d9c565b8114611db8575f80fd5b50565b5f81359050611dc981611da5565b92915050565b5f60208284031215611de457611de3611a9e565b5b5f611df184828501611dbb565b91505092915050565b611e0381611d9c565b82525050565b5f602082019050611e1c5f830184611dfa565b92915050565b5f8060408385031215611e3857611e37611a9e565b5b5f611e4585828601611dbb565b9250506020611e5685828601611ccf565b9150509250929050565b611e6981611c03565b82525050565b5f602082019050611e825f830184611e60565b92915050565b611e9181611b26565b8114611e9b575f80fd5b50565b5f81359050611eac81611e88565b92915050565b5f8060408385031215611ec857611ec7611a9e565b5b5f611ed585828601611ccf565b9250506020611ee685828601611e9e565b9150509250929050565b5f80fd5b5f80fd5b7f4e487b71000000000000000000000000000000000000000000000000000000005f52604160045260245ffd5b611f2e82611b9b565b810181811067ffffffffffffffff82111715611f4d57611f4c611ef8565b5b80604052505050565b5f611f5f611a95565b9050611f6b8282611f25565b919050565b5f67ffffffffffffffff821115611f8a57611f89611ef8565b5b611f9382611b9b565b9050602081019050919050565b828183375f83830152505050565b5f611fc0611fbb84611f70565b611f56565b905082815260208101848484011115611fdc57611fdb611ef4565b5b611fe7848285611fa0565b509392505050565b5f82601f83011261200357612002611ef0565b5b8135612013848260208601611fae565b91505092915050565b5f805f806080858703121561203457612033611a9e565b5b5f61204187828801611ccf565b945050602061205287828801611ccf565b935050604061206387828801611c22565b925050606085013567ffffffffffffffff81111561208457612083611aa2565b5b61209087828801611fef565b91505092959194509250565b5f80604083850312156120b2576120b1611a9e565b5b5f6120bf85828601611ccf565b92505060206120d085828601611ccf565b9150509250929050565b7f4e487b71000000000000000000000000000000000000000000000000000000005f52602260045260245ffd5b5f600282049050600182168061211e57607f821691505b602082108103612131576121306120da565b5b50919050565b5f60608201905061214a5f830186611c91565b6121576020830185611e60565b6121646040830184611c91565b949350505050565b7f4e487b71000000000000000000000000000000000000000000000000000000005f52601160045260245ffd5b5f6121a382611c03565b91507fffffffffffffffffffffffffffffffffffffffffffffffffffffffffffffffff82036121d5576121d461216c565b5b600182019050919050565b5f81519050919050565b5f82825260208201905092915050565b5f612204826121e0565b61220e81856121ea565b935061221e818560208601611b73565b61222781611b9b565b840191505092915050565b5f6080820190506122455f830187611c91565b6122526020830186611c91565b61225f6040830185611e60565b818103606083015261227181846121fa565b905095945050505050565b5f8151905061228a81611ad1565b92915050565b5f602082840312156122a5576122a4611a9e565b5b5f6122b28482850161227c565b91505092915050565b5f6040820190506122ce5f830185611c91565b6122db6020830184611e60565b9392505050565b5f6040820190506122f55f830185611c91565b6123026020830184611dfa565b939250505056fe68747470733a2f2f6578616d706c652e636f6d2f766f74652d6e66742e6a736f6ea26469706673582212205caa52998dc7afdfc6f958773fb705beed04b8129ca045c4c89d3436f8fe6f9864736f6c63430008180033","linkReferences":{}},"methodIdentifiers":{"DEFAULT_ADMIN_ROLE()":"a217fddf","MINTER_ROLE()":"d5391393","approve(address,uint256)":"095ea7b3","balanceOf(address)":"70a08231","getApproved(uint256)":"081812fc","getRoleAdmin(bytes32)":"248a9ca3","grantRole(bytes32,address)":"2f2ff15d","hasRole(bytes32,address)":"91d14854","hasVoted(address)":"09eef43e","isApprovedForAll(address,address)":"e985e9c5","mint(address)":"6a627842","name()":"06fdde03","ownerOf(uint256)":"6352211e","renounceRole(bytes32,address)":"36568abe","revokeRole(bytes32,address)":"d547741f","safeTransferFrom(address,address,uint256)":"42842e0e","safeTransferFrom(address,address,uint256,bytes)":"b88d4fde","setApprovalForAll(address,bool)":"a22cb465","setVotingSystem(address)":"2a664d0a","supportsInterface(bytes4)":"01ffc9a7","symbol()":"95d89b41","tokenURI(uint256)":"c87b56dd","transferFrom(address,address,uint256)":"23b872dd"},"id":40}