{"abi":[{"type":"constructor","inputs":[{"name":"_voteNFT","type":"address","internalType":"address"}],"stateMutability":"nonpayable"},{"type":"function","name":"ADMIN_ROLE","inputs":[],"outputs":[{"name":"","type":"bytes32","internalType":"bytes32"}],"stateMutability":"view"},{"type":"function","name":"DEFAULT_ADMIN_ROLE","inputs":[],"outputs":[{"name":"","type":"bytes32","internalType":"bytes32"}],"stateMutability":"view"},{"type":"function","name":"FOUNDER_ROLE","inputs":[],"outputs":[{"name":"","type":"bytes32","internalType":"bytes32"}],"stateMutability":"view"},{"type":"function","name":"candidateIds","inputs":[{"name":"","type":"uint256","internalType":"uint256"}],"outputs":[{"name":"","type":"uint256","internalType":"uint256"}],"stateMutability":"view"},{"type":"function","name":"candidates","inputs":[{"name":"","type":"uint256","internalType":"uint256"}],"outputs":[{"name":"id","type":"uint256","internalType":"uint256"},{"name":"name","type":"string","internalType":"string"},{"name":"amountReceived","type":"uint256","internalType":"uint256"},{"name":"voteCount","type":"uint256","internalType":"uint256"}],"stateMutability":"view"},{"type":"function","name":"determineWinner","inputs":[],"outputs":[{"name":"candidateId","type":"uint256","internalType":"uint256"},{"name":"name","type":"string","internalType":"string"}],"stateMutability":"nonpayable"},{"type":"function","name":"fundCandidate","inputs":[{"name":"candidateId","type":"uint256","internalType":"uint256"}],"outputs":[],"stateMutability":"payable"},{"type":"function","name":"getAllCandidateIds","inputs":[],"outputs":[{"name":"","type":"uint256[]","internalType":"uint256[]"}],"stateMutability":"view"},{"type":"function","name":"getCandidate","inputs":[{"name":"candidateId","type":"uint256","internalType":"uint256"}],"outputs":[{"name":"","type":"tuple","internalType":"struct VotingSystem.Candidate","components":[{"name":"id","type":"uint256","internalType":"uint256"},{"name":"name","type":"string","internalType":"string"},{"name":"amountReceived","type":"uint256","internalType":"uint256"},{"name":"voteCount","type":"uint256","internalType":"uint256"}]}],"stateMutability":"view"},{"type":"function","name":"getCandidateCount","inputs":[],"outputs":[{"name":"","type":"uint256","internalType":"uint256"}],"stateMutability":"view"},{"type":"function","name":"getRoleAdmin","inputs":[{"name":"role","type":"bytes32","internalType":"bytes32"}],"outputs":[{"name":"","type":"bytes32","internalType":"bytes32"}],"stateMutability":"view"},{"type":"function","name":"grantRole","inputs":[{"name":"role","type":"bytes32","internalType":"bytes32"},{"name":"account","type":"address","internalType":"address"}],"outputs":[],"stateMutability":"nonpayable"},{"type":"function","name":"hasRole","inputs":[{"name":"role","type":"bytes32","internalType":"bytes32"},{"name":"account","type":"address","internalType":"address"}],"outputs":[{"name":"","type":"bool","internalType":"bool"}],"stateMutability":"view"},{"type":"function","name":"registerCandidate","inputs":[{"name":"name","type":"string","internalType":"string"}],"outputs":[],"stateMutability":"nonpayable"},{"type":"function","name":"renounceRole","inputs":[{"name":"role","type":"bytes32","internalType":"bytes32"},{"name":"callerConfirmation","type":"address","internalType":"address"}],"outputs":[],"stateMutability":"nonpayable"},{"type":"function","name":"revokeRole","inputs":[{"name":"role","type":"bytes32","internalType":"bytes32"},{"name":"account","type":"address","internalType":"address"}],"outputs":[],"stateMutability":"nonpayable"},{"type":"function","name":"setWorkflowStatus","inputs":[{"name":"newStatus","type":"uint8","internalType":"enum VotingSystem.WorkflowStatus"}],"outputs":[],"stateMutability":"nonpayable"},{"type":"function","name":"supportsInterface","inputs":[{"name":"interfaceId","type":"bytes4","internalType":"bytes4"}],"outputs":[{"name":"","type":"bool","internalType":"bool"}],"stateMutability":"view"},{"type":"function","name":"vote","inputs":[{"name":"candidateId","type":"uint256","internalType":"uint256"}],"outputs":[],"stateMutability":"nonpayable"},{"type":"function","name":"voteNFT","inputs":[],"outputs":[{"name":"","type":"address","internalType":"contract VoteNFT"}],"stateMutability":"view"},{"type":"function","name":"voteStartTime","inputs":[],"outputs":[{"name":"","type":"uint256","internalType":"uint256"}],"stateMutability":"view"},{"type":"function","name":"workflowStatus","inputs":[],"outputs":[{"name":"","type":"uint8","internalType":"enum VotingSystem.WorkflowStatus"}],"stateMutability":"view"},{"type":"event","name":"CandidateFunded","inputs":[{"name":"candidateId","type":"uint256","indexed":true,"internalType":"uint256"},{"name":"founder","type":"address","indexed":true,"internalType":"address"},{"name":"amount","type":"uint256","indexed":false,"internalType":"uint256"}],"anonymous":false},{"type":"event","name":"CandidateRegistered","inputs":[{"name":"candidateId","type":"uint256","indexed":true,"internalType":"uint256"},{"name":"name","type":"string","indexed":false,"internalType":"string"}],"anonymous":false},{"type":"event","name":"RoleAdminChanged","inputs":[{"name":"role","type":"bytes32","indexed":true,"internalType":"bytes32"},{"name":"previousAdminRole","type":"bytes32","indexed":true,"internalType":"bytes32"},{"name":"newAdminRole","type":"bytes32","indexed":true,"internalType":"bytes32"}],"anonymous":false},{"type":"event","name":"RoleGranted","inputs":[{"name":"role","type":"bytes32","indexed":true,"internalType":"bytes32"},{"name":"account","type":"address","indexed":true,"internalType":"address"},{"name":"sender","type":"address","indexed":true,"internalType":"address"}],"anonymous":false},{"type":"event","name":"RoleRevoked","inputs":[{"name":"role","type":"bytes32","indexed":true,"internalType":"bytes32"},{"name":"account","type":"address","indexed":true,"internalType":"address"},{"name":"sender","type":"address","indexed":true,"internalType":"address"}],"anonymous":false},{"type":"event","name":"Voted","inputs":[{"name":"voter","type":"address","indexed":true,"internalType":"address"},{"name":"candidateId","type":"uint256","indexed":true,"internalType":"uint256"}],"anonymous":false},{"type":"event","name":"WinnerDetermined","inputs":[{"name":"candidateId","type":"uint256","indexed":true,"internalType":"uint256"},{"name":"name","type":"string","indexed":false,"internalType":"string"},{"name":"voteCount","type":"uint256","indexed":false,"internalType":"uint256"}],"anonymous":false},{"type":"event","name":"WorkflowStatusChanged","inputs":[{"name":"oldStatus","type":"uint8","indexed":false,"internalType":"enum VotingSystem.WorkflowStatus"},{"name":"newStatus","type":"uint8","indexed":false,"internalType":"enum VotingSystem.WorkflowStatus"}],"anonymous":false},{"type":"error","name":"AccessControlBadConfirmation","inputs":[]},{"type":"error","name":"AccessControlUnauthorizedAccount","inputs":[{"name":"account","type":"address","internalType":"address"},{"name":"neededRole","type":"bytes32","internalType":"bytes32"}]},{"type":"error","name":"AlreadyVoted","inputs":[{"name":"voter","type":"address","internalType":"address"}]},{"type":"error","name":"CandidateNotFound","inputs":[{"name":"candidateId","type":"uint256","internalType":"uint256"}]},{"type":"error","name":"InvalidCandidate","inputs":[]},{"type":"error","name":"InvalidWorkflowStatus","inputs":[{"name":"required","type":"uint8","internalType":"enum VotingSystem.WorkflowStatus"},{"name":"current","type":"uint8","internalType":"enum VotingSystem.WorkflowStatus"}]},{"type":"error","name":"NoCandidates","inputs":[]},{"type":"error","name":"NoVotes","inputs":[]},{"type":"error","name":"VoteNotStarted","inputs":[]}],"bytecode":{"object":"0x608060405234801562000010575f80fd5b5060405162002563380380620025638339818101604052810190620000369190620002bc565b8060015f6101000a81548173ffffffffffffffffffffffffffffffffffffffff021916908373ffffffffffffffffffffffffffffffffffffffff1602179055505f600160146101000a81548160ff021916908360038111156200009e576200009d620002ec565b5b0217905550620000b75f801b33620000f260201b60201c565b50620000ea7fa49807205ce4d355092ef5a8a18f56e8913cf4a201fbe287825b095693c2177533620000f260201b60201c565b505062000319565b5f620001058383620001ed60201b60201c565b620001e35760015f808581526020019081526020015f205f015f8473ffffffffffffffffffffffffffffffffffffffff1673ffffffffffffffffffffffffffffffffffffffff1681526020019081526020015f205f6101000a81548160ff0219169083151502179055506200017f6200025060201b60201c565b73ffffffffffffffffffffffffffffffffffffffff168273ffffffffffffffffffffffffffffffffffffffff16847f2f8788117e7eff1d82e926ec794901d17c78024a50270940304540a733656f0d60405160405180910390a460019050620001e7565b5f90505b92915050565b5f805f8481526020019081526020015f205f015f8373ffffffffffffffffffffffffffffffffffffffff1673ffffffffffffffffffffffffffffffffffffffff1681526020019081526020015f205f9054906101000a900460ff16905092915050565b5f33905090565b5f80fd5b5f73ffffffffffffffffffffffffffffffffffffffff82169050919050565b5f62000286826200025b565b9050919050565b62000298816200027a565b8114620002a3575f80fd5b50565b5f81519050620002b6816200028d565b92915050565b5f60208284031215620002d457620002d362000257565b5b5f620002e384828501620002a6565b91505092915050565b7f4e487b71000000000000000000000000000000000000000000000000000000005f52602160045260245ffd5b61223c80620003275f395ff3fe608060405260043610610134575f3560e01c80633e26a9b5116100aa57806391d148541161006e57806391d14854146104205780639eb88db61461045c578063a1edffa214610484578063a217fddf146104ae578063c1e6f304146104d8578063d547741f1461050257610134565b80633e26a9b51461035e5780634c38f7081461038857806350203cbf146103b2578063577740b1146103ce57806375b238fc146103f657610134565b80632f2ff15d116100fc5780632f2ff15d1461023e57806330a563471461026657806333b16d93146102905780633477ee2e146102bb57806335b8e820146102fa57806336568abe1461033657610134565b80630121b93f1461013857806301ffc9a714610160578063030161301461019c57806318024acc146101d8578063248a9ca314610202575b5f80fd5b348015610143575f80fd5b5061015e600480360381019061015991906115d3565b61052a565b005b34801561016b575f80fd5b5061018660048036038101906101819190611653565b61081b565b6040516101939190611698565b60405180910390f35b3480156101a7575f80fd5b506101c260048036038101906101bd91906115d3565b610894565b6040516101cf91906116c0565b60405180910390f35b3480156101e3575f80fd5b506101ec6108b4565b6040516101f991906116c0565b60405180910390f35b34801561020d575f80fd5b506102286004803603810190610223919061170c565b6108ba565b6040516102359190611746565b60405180910390f35b348015610249575f80fd5b50610264600480360381019061025f91906117b9565b6108d6565b005b348015610271575f80fd5b5061027a6108f8565b60405161028791906116c0565b60405180910390f35b34801561029b575f80fd5b506102a4610904565b6040516102b2929190611881565b60405180910390f35b3480156102c6575f80fd5b506102e160048036038101906102dc91906115d3565b610b60565b6040516102f194939291906118af565b60405180910390f35b348015610305575f80fd5b50610320600480360381019061031b91906115d3565b610c12565b60405161032d91906119b0565b60405180910390f35b348015610341575f80fd5b5061035c600480360381019061035791906117b9565b610cea565b005b348015610369575f80fd5b50610372610d65565b60405161037f9190611a78565b60405180910390f35b348015610393575f80fd5b5061039c610dbb565b6040516103a99190611af3565b60405180910390f35b6103cc60048036038101906103c791906115d3565b610de0565b005b3480156103d9575f80fd5b506103f460048036038101906103ef9190611b2f565b610f69565b005b348015610401575f80fd5b5061040a611042565b6040516104179190611746565b60405180910390f35b34801561042b575f80fd5b50610446600480360381019061044191906117b9565b611066565b6040516104539190611698565b60405180910390f35b348015610467575f80fd5b50610482600480360381019061047d9190611c86565b6110c9565b005b34801561048f575f80fd5b50610498611264565b6040516104a59190611d40565b60405180910390f35b3480156104b9575f80fd5b506104c2611277565b6040516104cf9190611746565b60405180910390f35b3480156104e3575f80fd5b506104ec61127d565b6040516104f99190611746565b60405180910390f35b34801561050d575f80fd5b50610528600480360381019061052391906117b9565b6112a1565b005b600280600381111561053f5761053e611ccd565b5b600160149054906101000a900460ff16600381111561056157610560611ccd565b5b146105b45780600160149054906101000a900460ff166040517f0e10df3f0000000000000000000000000000000000000000000000000000000081526004016105ab929190611d59565b60405180910390fd5b600a6002546105c39190611dad565b4210156105fc576040517fc62abcd600000000000000000000000000000000000000000000000000000000815260040160405180910390fd5b60015f9054906101000a900473ffffffffffffffffffffffffffffffffffffffff1673ffffffffffffffffffffffffffffffffffffffff166309eef43e336040518263ffffffff1660e01b81526004016106569190611def565b602060405180830381865afa158015610671573d5f803e3d5ffd5b505050506040513d601f19601f820116820180604052508101906106959190611e32565b156106d757336040517fd449d6740000000000000000000000000000000000000000000000000000000081526004016106ce9190611def565b60405180910390fd5b5f60035f8481526020019081526020015f205f015403610723576040517fe66ea08f00000000000000000000000000000000000000000000000000000000815260040160405180910390fd5b60015f9054906101000a900473ffffffffffffffffffffffffffffffffffffffff1673ffffffffffffffffffffffffffffffffffffffff16636a627842336040518263ffffffff1660e01b815260040161077d9190611def565b5f604051808303815f87803b158015610794575f80fd5b505af11580156107a6573d5f803e3d5ffd5b5050505060035f8381526020019081526020015f206003015f8154809291906107ce90611e5d565b9190505550813373ffffffffffffffffffffffffffffffffffffffff167f4d99b957a2bc29a30ebd96a7be8e68fe50a3c701db28a91436490b7d53870ca460405160405180910390a35050565b5f7f7965db0b000000000000000000000000000000000000000000000000000000007bffffffffffffffffffffffffffffffffffffffffffffffffffffffff1916827bffffffffffffffffffffffffffffffffffffffffffffffffffffffff1916148061088d575061088c826112c3565b5b9050919050565b600481815481106108a3575f80fd5b905f5260205f20015f915090505481565b60025481565b5f805f8381526020019081526020015f20600101549050919050565b6108df826108ba565b6108e88161132c565b6108f28383611340565b50505050565b5f600480549050905090565b5f6060600380600381111561091c5761091b611ccd565b5b600160149054906101000a900460ff16600381111561093e5761093d611ccd565b5b146109915780600160149054906101000a900460ff166040517f0e10df3f000000000000000000000000000000000000000000000000000000008152600401610988929190611d59565b60405180910390fd5b5f600480549050036109cf576040517fe504190400000000000000000000000000000000000000000000000000000000815260040160405180910390fd5b5f805f5b600480549050811015610a45575f600482815481106109f5576109f4611ea4565b5b905f5260205f20015490508360035f8381526020019081526020015f20600301541115610a375760035f8281526020019081526020015f206003015493508092505b5080806001019150506109d3565b505f8203610a7f576040517f198e163000000000000000000000000000000000000000000000000000000000815260040160405180910390fd5b80945060035f8281526020019081526020015f206001018054610aa190611efe565b80601f0160208091040260200160405190810160405280929190818152602001828054610acd90611efe565b8015610b185780601f10610aef57610100808354040283529160200191610b18565b820191905f5260205f20905b815481529060010190602001808311610afb57829003601f168201915b50505050509350807f3e8d0c56cdbdab1bab8a8e9d887cd502ee9776f96d0e38ead9141af53bb17ba18584604051610b51929190611f2e565b60405180910390a25050509091565b6003602052805f5260405f205f91509050805f015490806001018054610b8590611efe565b80601f0160208091040260200160405190810160405280929190818152602001828054610bb190611efe565b8015610bfc5780601f10610bd357610100808354040283529160200191610bfc565b820191905f5260205f20905b815481529060010190602001808311610bdf57829003601f168201915b5050505050908060020154908060030154905084565b610c1a61156a565b60035f8381526020019081526020015f206040518060800160405290815f8201548152602001600182018054610c4f90611efe565b80601f0160208091040260200160405190810160405280929190818152602001828054610c7b90611efe565b8015610cc65780601f10610c9d57610100808354040283529160200191610cc6565b820191905f5260205f20905b815481529060010190602001808311610ca957829003601f168201915b50505050508152602001600282015481526020016003820154815250509050919050565b610cf2611429565b73ffffffffffffffffffffffffffffffffffffffff168173ffffffffffffffffffffffffffffffffffffffff1614610d56576040517f6697b23200000000000000000000000000000000000000000000000000000000815260040160405180910390fd5b610d608282611430565b505050565b60606004805480602002602001604051908101604052809291908181526020018280548015610db157602002820191905f5260205f20905b815481526020019060010190808311610d9d575b5050505050905090565b60015f9054906101000a900473ffffffffffffffffffffffffffffffffffffffff1681565b7f7ed687a8f2955bd2ba7ca08227e1e364d132be747f42fb733165f923021b0225610e0a8161132c565b6001806003811115610e1f57610e1e611ccd565b5b600160149054906101000a900460ff166003811115610e4157610e40611ccd565b5b14610e945780600160149054906101000a900460ff166040517f0e10df3f000000000000000000000000000000000000000000000000000000008152600401610e8b929190611d59565b60405180910390fd5b5f60035f8581526020019081526020015f205f015403610eeb57826040517f66ad9932000000000000000000000000000000000000000000000000000000008152600401610ee291906116c0565b60405180910390fd5b3460035f8581526020019081526020015f206002015f828254610f0e9190611dad565b925050819055503373ffffffffffffffffffffffffffffffffffffffff16837ff479361eabc06e9084ab54709c66251af44d2fb4f3ee55ec750b8d93ba5a52f434604051610f5c91906116c0565b60405180910390a3505050565b7fa49807205ce4d355092ef5a8a18f56e8913cf4a201fbe287825b095693c21775610f938161132c565b5f600160149054906101000a900460ff16905082600160146101000a81548160ff02191690836003811115610fcb57610fca611ccd565b5b021790555060026003811115610fe457610fe3611ccd565b5b836003811115610ff757610ff6611ccd565b5b0361100457426002819055505b7f880498af3c6b66c92ab2120d6b0aca7539f4b40c5f3d8366dc8f8706bf60e9928184604051611035929190611d59565b60405180910390a1505050565b7fa49807205ce4d355092ef5a8a18f56e8913cf4a201fbe287825b095693c2177581565b5f805f8481526020019081526020015f205f015f8373ffffffffffffffffffffffffffffffffffffffff1673ffffffffffffffffffffffffffffffffffffffff1681526020019081526020015f205f9054906101000a900460ff16905092915050565b7fa49807205ce4d355092ef5a8a18f56e8913cf4a201fbe287825b095693c217756110f38161132c565b5f80600381111561110757611106611ccd565b5b600160149054906101000a900460ff16600381111561112957611128611ccd565b5b1461117c5780600160149054906101000a900460ff166040517f0e10df3f000000000000000000000000000000000000000000000000000000008152600401611173929190611d59565b60405180910390fd5b60055f81548092919061118e90611e5d565b91905055505f600554905060405180608001604052808281526020018581526020015f81526020015f81525060035f8381526020019081526020015f205f820151815f015560208201518160010190816111e891906120f0565b506040820151816002015560608201518160030155905050600481908060018154018082558091505060019003905f5260205f20015f9091909190915055807f96b6e1d9af8279de0ae4d01600bcae708bdb292c4a8f8f150aff92f5caf56a428560405161125691906121bf565b60405180910390a250505050565b600160149054906101000a900460ff1681565b5f801b81565b7f7ed687a8f2955bd2ba7ca08227e1e364d132be747f42fb733165f923021b022581565b6112aa826108ba565b6112b38161132c565b6112bd8383611430565b50505050565b5f7f01ffc9a7000000000000000000000000000000000000000000000000000000007bffffffffffffffffffffffffffffffffffffffffffffffffffffffff1916827bffffffffffffffffffffffffffffffffffffffffffffffffffffffff1916149050919050565b61133d81611338611429565b611519565b50565b5f61134b8383611066565b61141f5760015f808581526020019081526020015f205f015f8473ffffffffffffffffffffffffffffffffffffffff1673ffffffffffffffffffffffffffffffffffffffff1681526020019081526020015f205f6101000a81548160ff0219169083151502179055506113bc611429565b73ffffffffffffffffffffffffffffffffffffffff168273ffffffffffffffffffffffffffffffffffffffff16847f2f8788117e7eff1d82e926ec794901d17c78024a50270940304540a733656f0d60405160405180910390a460019050611423565b5f90505b92915050565b5f33905090565b5f61143b8383611066565b1561150f575f805f8581526020019081526020015f205f015f8473ffffffffffffffffffffffffffffffffffffffff1673ffffffffffffffffffffffffffffffffffffffff1681526020019081526020015f205f6101000a81548160ff0219169083151502179055506114ac611429565b73ffffffffffffffffffffffffffffffffffffffff168273ffffffffffffffffffffffffffffffffffffffff16847ff6391f5c32d9c69d2a47ea670b442974b53935d1edc7fd64eb21e047a839171b60405160405180910390a460019050611513565b5f90505b92915050565b6115238282611066565b6115665780826040517fe2517d3f00000000000000000000000000000000000000000000000000000000815260040161155d9291906121df565b60405180910390fd5b5050565b60405180608001604052805f8152602001606081526020015f81526020015f81525090565b5f604051905090565b5f80fd5b5f80fd5b5f819050919050565b6115b2816115a0565b81146115bc575f80fd5b50565b5f813590506115cd816115a9565b92915050565b5f602082840312156115e8576115e7611598565b5b5f6115f5848285016115bf565b91505092915050565b5f7fffffffff0000000000000000000000000000000000000000000000000000000082169050919050565b611632816115fe565b811461163c575f80fd5b50565b5f8135905061164d81611629565b92915050565b5f6020828403121561166857611667611598565b5b5f6116758482850161163f565b91505092915050565b5f8115159050919050565b6116928161167e565b82525050565b5f6020820190506116ab5f830184611689565b92915050565b6116ba816115a0565b82525050565b5f6020820190506116d35f8301846116b1565b92915050565b5f819050919050565b6116eb816116d9565b81146116f5575f80fd5b50565b5f81359050611706816116e2565b92915050565b5f6020828403121561172157611720611598565b5b5f61172e848285016116f8565b91505092915050565b611740816116d9565b82525050565b5f6020820190506117595f830184611737565b92915050565b5f73ffffffffffffffffffffffffffffffffffffffff82169050919050565b5f6117888261175f565b9050919050565b6117988161177e565b81146117a2575f80fd5b50565b5f813590506117b38161178f565b92915050565b5f80604083850312156117cf576117ce611598565b5b5f6117dc858286016116f8565b92505060206117ed858286016117a5565b9150509250929050565b5f81519050919050565b5f82825260208201905092915050565b5f5b8381101561182e578082015181840152602081019050611813565b5f8484015250505050565b5f601f19601f8301169050919050565b5f611853826117f7565b61185d8185611801565b935061186d818560208601611811565b61187681611839565b840191505092915050565b5f6040820190506118945f8301856116b1565b81810360208301526118a68184611849565b90509392505050565b5f6080820190506118c25f8301876116b1565b81810360208301526118d48186611849565b90506118e360408301856116b1565b6118f060608301846116b1565b95945050505050565b611902816115a0565b82525050565b5f82825260208201905092915050565b5f611922826117f7565b61192c8185611908565b935061193c818560208601611811565b61194581611839565b840191505092915050565b5f608083015f8301516119655f8601826118f9565b506020830151848203602086015261197d8282611918565b915050604083015161199260408601826118f9565b5060608301516119a560608601826118f9565b508091505092915050565b5f6020820190508181035f8301526119c88184611950565b905092915050565b5f81519050919050565b5f82825260208201905092915050565b5f819050602082019050919050565b5f611a0483836118f9565b60208301905092915050565b5f602082019050919050565b5f611a26826119d0565b611a3081856119da565b9350611a3b836119ea565b805f5b83811015611a6b578151611a5288826119f9565b9750611a5d83611a10565b925050600181019050611a3e565b5085935050505092915050565b5f6020820190508181035f830152611a908184611a1c565b905092915050565b5f819050919050565b5f611abb611ab6611ab18461175f565b611a98565b61175f565b9050919050565b5f611acc82611aa1565b9050919050565b5f611add82611ac2565b9050919050565b611aed81611ad3565b82525050565b5f602082019050611b065f830184611ae4565b92915050565b60048110611b18575f80fd5b50565b5f81359050611b2981611b0c565b92915050565b5f60208284031215611b4457611b43611598565b5b5f611b5184828501611b1b565b91505092915050565b5f80fd5b5f80fd5b7f4e487b71000000000000000000000000000000000000000000000000000000005f52604160045260245ffd5b611b9882611839565b810181811067ffffffffffffffff82111715611bb757611bb6611b62565b5b80604052505050565b5f611bc961158f565b9050611bd58282611b8f565b919050565b5f67ffffffffffffffff821115611bf457611bf3611b62565b5b611bfd82611839565b9050602081019050919050565b828183375f83830152505050565b5f611c2a611c2584611bda565b611bc0565b905082815260208101848484011115611c4657611c45611b5e565b5b611c51848285611c0a565b509392505050565b5f82601f830112611c6d57611c6c611b5a565b5b8135611c7d848260208601611c18565b91505092915050565b5f60208284031215611c9b57611c9a611598565b5b5f82013567ffffffffffffffff811115611cb857611cb761159c565b5b611cc484828501611c59565b91505092915050565b7f4e487b71000000000000000000000000000000000000000000000000000000005f52602160045260245ffd5b60048110611d0b57611d0a611ccd565b5b50565b5f819050611d1b82611cfa565b919050565b5f611d2a82611d0e565b9050919050565b611d3a81611d20565b82525050565b5f602082019050611d535f830184611d31565b92915050565b5f604082019050611d6c5f830185611d31565b611d796020830184611d31565b9392505050565b7f4e487b71000000000000000000000000000000000000000000000000000000005f52601160045260245ffd5b5f611db7826115a0565b9150611dc2836115a0565b9250828201905080821115611dda57611dd9611d80565b5b92915050565b611de98161177e565b82525050565b5f602082019050611e025f830184611de0565b92915050565b611e118161167e565b8114611e1b575f80fd5b50565b5f81519050611e2c81611e08565b92915050565b5f60208284031215611e4757611e46611598565b5b5f611e5484828501611e1e565b91505092915050565b5f611e67826115a0565b91507fffffffffffffffffffffffffffffffffffffffffffffffffffffffffffffffff8203611e9957611e98611d80565b5b600182019050919050565b7f4e487b71000000000000000000000000000000000000000000000000000000005f52603260045260245ffd5b7f4e487b71000000000000000000000000000000000000000000000000000000005f52602260045260245ffd5b5f6002820490506001821680611f1557607f821691505b602082108103611f2857611f27611ed1565b5b50919050565b5f6040820190508181035f830152611f468185611849565b9050611f5560208301846116b1565b9392505050565b5f819050815f5260205f209050919050565b5f6020601f8301049050919050565b5f82821b905092915050565b5f60088302611fb87fffffffffffffffffffffffffffffffffffffffffffffffffffffffffffffffff82611f7d565b611fc28683611f7d565b95508019841693508086168417925050509392505050565b5f611ff4611fef611fea846115a0565b611a98565b6115a0565b9050919050565b5f819050919050565b61200d83611fda565b61202161201982611ffb565b848454611f89565b825550505050565b5f90565b612035612029565b612040818484612004565b505050565b5b81811015612063576120585f8261202d565b600181019050612046565b5050565b601f8211156120a85761207981611f5c565b61208284611f6e565b81016020851015612091578190505b6120a561209d85611f6e565b830182612045565b50505b505050565b5f82821c905092915050565b5f6120c85f19846008026120ad565b1980831691505092915050565b5f6120e083836120b9565b9150826002028217905092915050565b6120f9826117f7565b67ffffffffffffffff81111561211257612111611b62565b5b61211c8254611efe565b612127828285612067565b5f60209050601f831160018114612158575f8415612146578287015190505b61215085826120d5565b8655506121b7565b601f19841661216686611f5c565b5f5b8281101561218d57848901518255600182019150602085019450602081019050612168565b868310156121aa57848901516121a6601f8916826120b9565b8355505b6001600288020188555050505b505050505050565b5f6020820190508181035f8301526121d78184611849565b905092915050565b5f6040820190506121f25f830185611de0565b6121ff6020830184611737565b939250505056fea264697066735822122036de34de4f19306eea9428bb4aa6d312e1b60552837dc7204453fae288cf211164736f6c63430008180033","linkReferences":{}},"methodIdentifiers":{"ADMIN_ROLE()":"75b238fc","DEFAULT_ADMIN_ROLE()":"a217fddf","FOUNDER_ROLE()":"c1e6f304","candidateIds(uint256)":"03016130","candidates(uint256)":"3477ee2e","determineWinner()":"33b16d93","fundCandidate(uint256)":"50203cbf","getAllCandidateIds()":"3e26a9b5","getCandidate(uint256)":"35b8e820","getCandidateCount()":"30a56347","getRoleAdmin(bytes32)":"248a9ca3","grantRole(bytes32,address)":"2f2ff15d","hasRole(bytes32,address)":"91d14854","registerCandidate(string)":"9eb88db6","renounceRole(bytes32,address)":"36568abe","revokeRole(bytes32,address)":"d547741f","setWorkflowStatus(uint8)":"577740b1","supportsInterface(bytes4)":"01ffc9a7","vote(uint256)":"0121b93f","voteNFT()":"4c38f708","voteStartTime()":"18024acc","workflowStatus()":"a1edffa2"},"id":39}