{"abi":[{"type":"constructor","inputs":[{"name":"_voteNFT","type":"address","internalType":"address"}],"stateMutability":"nonpayable"},{"type":"function","name":"ADMIN_ROLE","inputs":[],"outputs":[{"name":"","type":"bytes32","internalType":"bytes32"}],"stateMutability":"view"},{"type":"function","name":"DEFAULT_ADMIN_ROLE","inputs":[],"outputs":[{"name":"","type":"bytes32","internalType":"bytes32"}],"stateMutability":"view"},{"type":"function","name":"FOUNDER_ROLE","inputs":[],"outputs":[{"name":"","type":"bytes32","internalType":"bytes32"}],"stateMutability":"view"},{"type":"function","name":"candidateIds","inputs":[{"name":"","type":"uint256","internalType":"uint256"}],"outputs":[{"name":"","type":"uint256","internalType":"uint256"}],"stateMutability":"view"},{"type":"function","name":"candidates","inputs":[{"name":"","type":"uint256","internalType":"uint256"}],"outputs":[{"name":"id","type":"uint256","internalType":"uint256"},{"name":"name","type":"string","internalType":"string"},{"name":"amountReceived","type":"uint256","internalType":"uint256"},{"name":"voteCount","type":"uint256","internalType":"uint256"}],"stateMutability":"view"},{"type":"function","name":"determineWinner","inputs":[],"outputs":[{"name":"candidateId","type":"uint256","internalType":"uint256"},{"name":"name","type":"string","internalType":"string"}],"stateMutability":"nonpayable"},{"type":"function","name":"fundCandidate","inputs":[{"name":"candidateId","type":"uint256","internalType":"uint256"}],"outputs":[],"stateMutability":"payable"},{"type":"function","name":"getAllCandidateIds","inputs":[],"outputs":[{"name":"","type":"uint256[]","internalType":"uint256[]"}],"stateMutability":"view"},{"type":"function","name":"getCandidate","inputs":[{"name":"candidateId","type":"uint256","internalType":"uint256"}],"outputs":[{"name":"","type":"tuple","internalType":"struct VotingSystem.Candidate","components":[{"name":"id","type":"uint256","internalType":"uint256"},{"name":"name","type":"string","internalType":"string"},{"name":"amountReceived","type":"uint256","internalType":"uint256"},{"name":"voteCount","type":"uint256","internalType":"uint256"}]}],"stateMutability":"view"},{"type":"function","name":"getCandidateCount","inputs":[],"outputs":[{"name":"","type":"uint256","internalType":"uint256"}],"stateMutability":"view"},{"type":"function","name":"getRoleAdmin","inputs":[{"name":"role","type":"bytes32","internalType":"bytes32"}],"outputs":[{"name":"","type":"bytes32","internalType":"bytes32"}],"stateMutability":"view"},{"type":"function","name":"grantRole","inputs":[{"name":"role","type":"bytes32","internalType":"bytes32"},{"name":"account","type":"address","internalType":"address"}],"outputs":[],"stateMutability":"nonpayable"},{"type":"function","name":"hasRole","inputs":[{"name":"role","type":"bytes32","internalType":"bytes32"},{"name":"account","type":"address","internalType":"address"}],"outputs":[{"name":"","type":"bool","internalType":"bool"}],"stateMutability":"view"},{"type":"function","name":"registerCandidate","inputs":[{"name":"name","type":"string","internalType":"string"}],"outputs":[],"stateMutability":"nonpayable"},{"type":"function","name":"renounceRole","inputs":[{"name":"role","type":"bytes32","internalType":"bytes32"},{"name":"callerConfirmation","type":"address","internalType":"address"}],"outputs":[],"stateMutability":"nonpayable"},{"type":"function","name":"revokeRole","inputs":[{"name":"role","type":"bytes32","internalType":"bytes32"},{"name":"account","type":"address","internalType":"address"}],"outputs":[],"stateMutability":"nonpayable"},{"type":"function","name":"setWorkflowStatus","inputs":[{"name":"newStatus","type":"uint8","internalType":"enum VotingSystem.WorkflowStatus"}],"outputs":[],"stateMutability":"nonpayable"},{"type":"function","name":"supportsInterface","inputs":[{"name":"interfaceId","type":"bytes4","internalType":"bytes4"}],"outputs":[{"name":"","type":"bool","internalType":"bool"}],"stateMutability":"view"},{"type":"function","name":"vote","inputs":[{"name":"candidateId","type":"uint256","internalType":"uint256"}],"outputs":[],"stateMutability":"nonpayable"},{"type":"function","name":"voteNFT","inputs":[],"outputs":[{"name":"","type":"address","internalType":"contract VoteNFT"}],"stateMutability":"view"},{"type":"function","name":"voteStartTime","inputs":[],"outputs":[{"name":"","type":"uint256","internalType":"uint256"}],"stateMutability":"view"},{"type":"function","name":"workflowStatus","inputs":[],"outputs":[{"name":"","type":"uint8","internalType":"enum VotingSystem.WorkflowStatus"}],"stateMutability":"view"},{"type":"event","name":"CandidateFunded","inputs":[{"name":"candidateId","type":"uint256","indexed":true,"internalType":"uint256"},{"name":"founder","type":"address","indexed":true,"internalType":"address"},{"name":"amount","type":"uint256","indexed":false,"internalType":"uint256"}],"anonymous":false},{"type":"event","name":"CandidateRegistered","inputs":[{"name":"candidateId","type":"uint256","indexed":true,"internalType":"uint256"},{"name":"name","type":"string","indexed":false,"internalType":"string"}],"anonymous":false},{"type":"event","name":"RoleAdminChanged","inputs":[{"name":"role","type":"bytes32","indexed":true,"internalType":"bytes32"},{"name":"previousAdminRole","type":"bytes32","indexed":true,"internalType":"bytes32"},{"name":"newAdminRole","type":"bytes32","indexed":true,"internalType":"bytes32"}],"anonymous":false},{"type":"event","name":"RoleGranted","inputs":[{"name":"role","type":"bytes32","indexed":true,"internalType":"bytes32"},{"name":"account","type":"address","indexed":true,"internalType":"address"},{"name":"sender","type":"address","indexed":true,"internalType":"address"}],"anonymous":false},{"type":"event","name":"RoleRevoked","inputs":[{"name":"role","type":"bytes32","indexed":true,"internalType":"bytes32"},{"name":"account","type":"address","indexed":true,"internalType":"address"},{"name":"sender","type":"address","indexed":true,"internalType":"address"}],"anonymous":false},{"type":"event","name":"Voted","inputs":[{"name":"voter","type":"address","indexed":true,"internalType":"address"},{"name":"candidateId","type":"uint256","indexed":true,"internalType":"uint256"}],"anonymous":false},{"type":"event","name":"WinnerDetermined","inputs":[{"name":"candidateId","type":"uint256","indexed":true,"internalType":"uint256"},{"name":"name","type":"string","indexed":false,"internalType":"string"},{"name":"voteCount","type":"uint256","indexed":false,"internalType":"uint256"}],"anonymous":false},{"type":"event","name":"WorkflowStatusChanged","inputs":[{"name":"oldStatus","type":"uint8","indexed":false,"internalType":"enum VotingSystem.WorkflowStatus"},{"name":"newStatus","type":"uint8","indexed":false,"internalType":"enum VotingSystem.WorkflowStatus"}],"anonymous":false},{"type":"error","name":"AccessControlBadConfirmation","inputs":[]},{"type":"error","name":"AccessControlUnauthorizedAccount","inputs":[{"name":"account","type":"address","internalType":"address"},{"name":"neededRole","type":"bytes32","internalType":"bytes32"}]},{"type":"error","name":"AlreadyVoted","inputs":[{"name":"voter","type":"address","internalType":"address"}]},{"type":"error","name":"CandidateNotFound","inputs":[{"name":"candidateId","type":"uint256","internalType":"uint256"}]},{"type":"error","name":"InvalidCandidate","inputs":[]},{"type":"error","name":"InvalidWorkflowStatus","inputs":[{"name":"required","type":"uint8","internalType":"enum VotingSystem.WorkflowStatus"},{"name":"current","type":"uint8","internalType":"enum VotingSystem.WorkflowStatus"}]},{"type":"error","name":"NoCandidates","inputs":[]},{"type":"error","name":"NoVotes","inputs":[]},{"type":"error","name":"VoteNotStarted","inputs":[]}],"bytecode":{"object":"0x608060405234801562000010575f80fd5b5060405162002564380380620025648339818101604052810190620000369190620002bc565b8060015f6101000a81548173ffffffffffffffffffffffffffffffffffffffff021916908373ffffffffffffffffffffffffffffffffffffffff1602179055505f600160146101000a81548160ff021916908360038111156200009e576200009d620002ec565b5b0217905550620000b75f801b33620000f260201b60201c565b50620000ea7fa49807205ce4d355092ef5a8a18f56e8913cf4a201fbe287825b095693c2177533620000f260201b60201c565b505062000319565b5f620001058383620001ed60201b60201c565b620001e35760015f808581526020019081526020015f205f015f8473ffffffffffffffffffffffffffffffffffffffff1673ffffffffffffffffffffffffffffffffffffffff1681526020019081526020015f205f6101000a81548160ff0219169083151502179055506200017f6200025060201b60201c565b73ffffffffffffffffffffffffffffffffffffffff168273ffffffffffffffffffffffffffffffffffffffff16847f2f8788117e7eff1d82e926ec794901d17c78024a50270940304540a733656f0d60405160405180910390a460019050620001e7565b5f90505b92915050565b5f805f8481526020019081526020015f205f015f8373ffffffffffffffffffffffffffffffffffffffff1673ffffffffffffffffffffffffffffffffffffffff1681526020019081526020015f205f9054906101000a900460ff16905092915050565b5f33905090565b5f80fd5b5f73ffffffffffffffffffffffffffffffffffffffff82169050919050565b5f62000286826200025b565b9050919050565b62000298816200027a565b8114620002a3575f80fd5b50565b5f81519050620002b6816200028d565b92915050565b5f60208284031215620002d457620002d362000257565b5b5f620002e384828501620002a6565b91505092915050565b7f4e487b71000000000000000000000000000000000000000000000000000000005f52602160045260245ffd5b61223d80620003275f395ff3fe608060405260043610610134575f3560e01c80633e26a9b5116100aa57806391d148541161006e57806391d14854146104205780639eb88db61461045c578063a1edffa214610484578063a217fddf146104ae578063c1e6f304146104d8578063d547741f1461050257610134565b80633e26a9b51461035e5780634c38f7081461038857806350203cbf146103b2578063577740b1146103ce57806375b238fc146103f657610134565b80632f2ff15d116100fc5780632f2ff15d1461023e57806330a563471461026657806333b16d93146102905780633477ee2e146102bb57806335b8e820146102fa57806336568abe1461033657610134565b80630121b93f1461013857806301ffc9a714610160578063030161301461019c57806318024acc146101d8578063248a9ca314610202575b5f80fd5b348015610143575f80fd5b5061015e600480360381019061015991906115d4565b61052a565b005b34801561016b575f80fd5b5061018660048036038101906101819190611654565b61081c565b6040516101939190611699565b60405180910390f35b3480156101a7575f80fd5b506101c260048036038101906101bd91906115d4565b610895565b6040516101cf91906116c1565b60405180910390f35b3480156101e3575f80fd5b506101ec6108b5565b6040516101f991906116c1565b60405180910390f35b34801561020d575f80fd5b506102286004803603810190610223919061170d565b6108bb565b6040516102359190611747565b60405180910390f35b348015610249575f80fd5b50610264600480360381019061025f91906117ba565b6108d7565b005b348015610271575f80fd5b5061027a6108f9565b60405161028791906116c1565b60405180910390f35b34801561029b575f80fd5b506102a4610905565b6040516102b2929190611882565b60405180910390f35b3480156102c6575f80fd5b506102e160048036038101906102dc91906115d4565b610b61565b6040516102f194939291906118b0565b60405180910390f35b348015610305575f80fd5b50610320600480360381019061031b91906115d4565b610c13565b60405161032d91906119b1565b60405180910390f35b348015610341575f80fd5b5061035c600480360381019061035791906117ba565b610ceb565b005b348015610369575f80fd5b50610372610d66565b60405161037f9190611a79565b60405180910390f35b348015610393575f80fd5b5061039c610dbc565b6040516103a99190611af4565b60405180910390f35b6103cc60048036038101906103c791906115d4565b610de1565b005b3480156103d9575f80fd5b506103f460048036038101906103ef9190611b30565b610f6a565b005b348015610401575f80fd5b5061040a611043565b6040516104179190611747565b60405180910390f35b34801561042b575f80fd5b50610446600480360381019061044191906117ba565b611067565b6040516104539190611699565b60405180910390f35b348015610467575f80fd5b50610482600480360381019061047d9190611c87565b6110ca565b005b34801561048f575f80fd5b50610498611265565b6040516104a59190611d41565b60405180910390f35b3480156104b9575f80fd5b506104c2611278565b6040516104cf9190611747565b60405180910390f35b3480156104e3575f80fd5b506104ec61127e565b6040516104f99190611747565b60405180910390f35b34801561050d575f80fd5b50610528600480360381019061052391906117ba565b6112a2565b005b600280600381111561053f5761053e611cce565b5b600160149054906101000a900460ff16600381111561056157610560611cce565b5b146105b45780600160149054906101000a900460ff166040517f0e10df3f0000000000000000000000000000000000000000000000000000000081526004016105ab929190611d5a565b60405180910390fd5b610e106002546105c49190611dae565b4210156105fd576040517fc62abcd600000000000000000000000000000000000000000000000000000000815260040160405180910390fd5b60015f9054906101000a900473ffffffffffffffffffffffffffffffffffffffff1673ffffffffffffffffffffffffffffffffffffffff166309eef43e336040518263ffffffff1660e01b81526004016106579190611df0565b602060405180830381865afa158015610672573d5f803e3d5ffd5b505050506040513d601f19601f820116820180604052508101906106969190611e33565b156106d857336040517fd449d6740000000000000000000000000000000000000000000000000000000081526004016106cf9190611df0565b60405180910390fd5b5f60035f8481526020019081526020015f205f015403610724576040517fe66ea08f00000000000000000000000000000000000000000000000000000000815260040160405180910390fd5b60015f9054906101000a900473ffffffffffffffffffffffffffffffffffffffff1673ffffffffffffffffffffffffffffffffffffffff16636a627842336040518263ffffffff1660e01b815260040161077e9190611df0565b5f604051808303815f87803b158015610795575f80fd5b505af11580156107a7573d5f803e3d5ffd5b5050505060035f8381526020019081526020015f206003015f8154809291906107cf90611e5e565b9190505550813373ffffffffffffffffffffffffffffffffffffffff167f4d99b957a2bc29a30ebd96a7be8e68fe50a3c701db28a91436490b7d53870ca460405160405180910390a35050565b5f7f7965db0b000000000000000000000000000000000000000000000000000000007bffffffffffffffffffffffffffffffffffffffffffffffffffffffff1916827bffffffffffffffffffffffffffffffffffffffffffffffffffffffff1916148061088e575061088d826112c4565b5b9050919050565b600481815481106108a4575f80fd5b905f5260205f20015f915090505481565b60025481565b5f805f8381526020019081526020015f20600101549050919050565b6108e0826108bb565b6108e98161132d565b6108f38383611341565b50505050565b5f600480549050905090565b5f6060600380600381111561091d5761091c611cce565b5b600160149054906101000a900460ff16600381111561093f5761093e611cce565b5b146109925780600160149054906101000a900460ff166040517f0e10df3f000000000000000000000000000000000000000000000000000000008152600401610989929190611d5a565b60405180910390fd5b5f600480549050036109d0576040517fe504190400000000000000000000000000000000000000000000000000000000815260040160405180910390fd5b5f805f5b600480549050811015610a46575f600482815481106109f6576109f5611ea5565b5b905f5260205f20015490508360035f8381526020019081526020015f20600301541115610a385760035f8281526020019081526020015f206003015493508092505b5080806001019150506109d4565b505f8203610a80576040517f198e163000000000000000000000000000000000000000000000000000000000815260040160405180910390fd5b80945060035f8281526020019081526020015f206001018054610aa290611eff565b80601f0160208091040260200160405190810160405280929190818152602001828054610ace90611eff565b8015610b195780601f10610af057610100808354040283529160200191610b19565b820191905f5260205f20905b815481529060010190602001808311610afc57829003601f168201915b50505050509350807f3e8d0c56cdbdab1bab8a8e9d887cd502ee9776f96d0e38ead9141af53bb17ba18584604051610b52929190611f2f565b60405180910390a25050509091565b6003602052805f5260405f205f91509050805f015490806001018054610b8690611eff565b80601f0160208091040260200160405190810160405280929190818152602001828054610bb290611eff565b8015610bfd5780601f10610bd457610100808354040283529160200191610bfd565b820191905f5260205f20905b815481529060010190602001808311610be057829003601f168201915b5050505050908060020154908060030154905084565b610c1b61156b565b60035f8381526020019081526020015f206040518060800160405290815f8201548152602001600182018054610c5090611eff565b80601f0160208091040260200160405190810160405280929190818152602001828054610c7c90611eff565b8015610cc75780601f10610c9e57610100808354040283529160200191610cc7565b820191905f5260205f20905b815481529060010190602001808311610caa57829003601f168201915b50505050508152602001600282015481526020016003820154815250509050919050565b610cf361142a565b73ffffffffffffffffffffffffffffffffffffffff168173ffffffffffffffffffffffffffffffffffffffff1614610d57576040517f6697b23200000000000000000000000000000000000000000000000000000000815260040160405180910390fd5b610d618282611431565b505050565b60606004805480602002602001604051908101604052809291908181526020018280548015610db257602002820191905f5260205f20905b815481526020019060010190808311610d9e575b5050505050905090565b60015f9054906101000a900473ffffffffffffffffffffffffffffffffffffffff1681565b7f7ed687a8f2955bd2ba7ca08227e1e364d132be747f42fb733165f923021b0225610e0b8161132d565b6001806003811115610e2057610e1f611cce565b5b600160149054906101000a900460ff166003811115610e4257610e41611cce565b5b14610e955780600160149054906101000a900460ff166040517f0e10df3f000000000000000000000000000000000000000000000000000000008152600401610e8c929190611d5a565b60405180910390fd5b5f60035f8581526020019081526020015f205f015403610eec57826040517f66ad9932000000000000000000000000000000000000000000000000000000008152600401610ee391906116c1565b60405180910390fd5b3460035f8581526020019081526020015f206002015f828254610f0f9190611dae565b925050819055503373ffffffffffffffffffffffffffffffffffffffff16837ff479361eabc06e9084ab54709c66251af44d2fb4f3ee55ec750b8d93ba5a52f434604051610f5d91906116c1565b60405180910390a3505050565b7fa49807205ce4d355092ef5a8a18f56e8913cf4a201fbe287825b095693c21775610f948161132d565b5f600160149054906101000a900460ff16905082600160146101000a81548160ff02191690836003811115610fcc57610fcb611cce565b5b021790555060026003811115610fe557610fe4611cce565b5b836003811115610ff857610ff7611cce565b5b0361100557426002819055505b7f880498af3c6b66c92ab2120d6b0aca7539f4b40c5f3d8366dc8f8706bf60e9928184604051611036929190611d5a565b60405180910390a1505050565b7fa49807205ce4d355092ef5a8a18f56e8913cf4a201fbe287825b095693c2177581565b5f805f8481526020019081526020015f205f015f8373ffffffffffffffffffffffffffffffffffffffff1673ffffffffffffffffffffffffffffffffffffffff1681526020019081526020015f205f9054906101000a900460ff16905092915050565b7fa49807205ce4d355092ef5a8a18f56e8913cf4a201fbe287825b095693c217756110f48161132d565b5f80600381111561110857611107611cce565b5b600160149054906101000a900460ff16600381111561112a57611129611cce565b5b1461117d5780600160149054906101000a900460ff166040517f0e10df3f000000000000000000000000000000000000000000000000000000008152600401611174929190611d5a565b60405180910390fd5b60055f81548092919061118f90611e5e565b91905055505f600554905060405180608001604052808281526020018581526020015f81526020015f81525060035f8381526020019081526020015f205f820151815f015560208201518160010190816111e991906120f1565b506040820151816002015560608201518160030155905050600481908060018154018082558091505060019003905f5260205f20015f9091909190915055807f96b6e1d9af8279de0ae4d01600bcae708bdb292c4a8f8f150aff92f5caf56a428560405161125791906121c0565b60405180910390a250505050565b600160149054906101000a900460ff1681565b5f801b81565b7f7ed687a8f2955bd2ba7ca08227e1e364d132be747f42fb733165f923021b022581565b6112ab826108bb565b6112b48161132d565b6112be8383611431565b50505050565b5f7f01ffc9a7000000000000000000000000000000000000000000000000000000007bffffffffffffffffffffffffffffffffffffffffffffffffffffffff1916827bffffffffffffffffffffffffffffffffffffffffffffffffffffffff1916149050919050565b61133e8161133961142a565b61151a565b50565b5f61134c8383611067565b6114205760015f808581526020019081526020015f205f015f8473ffffffffffffffffffffffffffffffffffffffff1673ffffffffffffffffffffffffffffffffffffffff1681526020019081526020015f205f6101000a81548160ff0219169083151502179055506113bd61142a565b73ffffffffffffffffffffffffffffffffffffffff168273ffffffffffffffffffffffffffffffffffffffff16847f2f8788117e7eff1d82e926ec794901d17c78024a50270940304540a733656f0d60405160405180910390a460019050611424565b5f90505b92915050565b5f33905090565b5f61143c8383611067565b15611510575f805f8581526020019081526020015f205f015f8473ffffffffffffffffffffffffffffffffffffffff1673ffffffffffffffffffffffffffffffffffffffff1681526020019081526020015f205f6101000a81548160ff0219169083151502179055506114ad61142a565b73ffffffffffffffffffffffffffffffffffffffff168273ffffffffffffffffffffffffffffffffffffffff16847ff6391f5c32d9c69d2a47ea670b442974b53935d1edc7fd64eb21e047a839171b60405160405180910390a460019050611514565b5f90505b92915050565b6115248282611067565b6115675780826040517fe2517d3f00000000000000000000000000000000000000000000000000000000815260040161155e9291906121e0565b60405180910390fd5b5050565b60405180608001604052805f8152602001606081526020015f81526020015f81525090565b5f604051905090565b5f80fd5b5f80fd5b5f819050919050565b6115b3816115a1565b81146115bd575f80fd5b50565b5f813590506115ce816115aa565b92915050565b5f602082840312156115e9576115e8611599565b5b5f6115f6848285016115c0565b91505092915050565b5f7fffffffff0000000000000000000000000000000000000000000000000000000082169050919050565b611633816115ff565b811461163d575f80fd5b50565b5f8135905061164e8161162a565b92915050565b5f6020828403121561166957611668611599565b5b5f61167684828501611640565b91505092915050565b5f8115159050919050565b6116938161167f565b82525050565b5f6020820190506116ac5f83018461168a565b92915050565b6116bb816115a1565b82525050565b5f6020820190506116d45f8301846116b2565b92915050565b5f819050919050565b6116ec816116da565b81146116f6575f80fd5b50565b5f81359050611707816116e3565b92915050565b5f6020828403121561172257611721611599565b5b5f61172f848285016116f9565b91505092915050565b611741816116da565b82525050565b5f60208201905061175a5f830184611738565b92915050565b5f73ffffffffffffffffffffffffffffffffffffffff82169050919050565b5f61178982611760565b9050919050565b6117998161177f565b81146117a3575f80fd5b50565b5f813590506117b481611790565b92915050565b5f80604083850312156117d0576117cf611599565b5b5f6117dd858286016116f9565b92505060206117ee858286016117a6565b9150509250929050565b5f81519050919050565b5f82825260208201905092915050565b5f5b8381101561182f578082015181840152602081019050611814565b5f8484015250505050565b5f601f19601f8301169050919050565b5f611854826117f8565b61185e8185611802565b935061186e818560208601611812565b6118778161183a565b840191505092915050565b5f6040820190506118955f8301856116b2565b81810360208301526118a7818461184a565b90509392505050565b5f6080820190506118c35f8301876116b2565b81810360208301526118d5818661184a565b90506118e460408301856116b2565b6118f160608301846116b2565b95945050505050565b611903816115a1565b82525050565b5f82825260208201905092915050565b5f611923826117f8565b61192d8185611909565b935061193d818560208601611812565b6119468161183a565b840191505092915050565b5f608083015f8301516119665f8601826118fa565b506020830151848203602086015261197e8282611919565b915050604083015161199360408601826118fa565b5060608301516119a660608601826118fa565b508091505092915050565b5f6020820190508181035f8301526119c98184611951565b905092915050565b5f81519050919050565b5f82825260208201905092915050565b5f819050602082019050919050565b5f611a0583836118fa565b60208301905092915050565b5f602082019050919050565b5f611a27826119d1565b611a3181856119db565b9350611a3c836119eb565b805f5b83811015611a6c578151611a5388826119fa565b9750611a5e83611a11565b925050600181019050611a3f565b5085935050505092915050565b5f6020820190508181035f830152611a918184611a1d565b905092915050565b5f819050919050565b5f611abc611ab7611ab284611760565b611a99565b611760565b9050919050565b5f611acd82611aa2565b9050919050565b5f611ade82611ac3565b9050919050565b611aee81611ad4565b82525050565b5f602082019050611b075f830184611ae5565b92915050565b60048110611b19575f80fd5b50565b5f81359050611b2a81611b0d565b92915050565b5f60208284031215611b4557611b44611599565b5b5f611b5284828501611b1c565b91505092915050565b5f80fd5b5f80fd5b7f4e487b71000000000000000000000000000000000000000000000000000000005f52604160045260245ffd5b611b998261183a565b810181811067ffffffffffffffff82111715611bb857611bb7611b63565b5b80604052505050565b5f611bca611590565b9050611bd68282611b90565b919050565b5f67ffffffffffffffff821115611bf557611bf4611b63565b5b611bfe8261183a565b9050602081019050919050565b828183375f83830152505050565b5f611c2b611c2684611bdb565b611bc1565b905082815260208101848484011115611c4757611c46611b5f565b5b611c52848285611c0b565b509392505050565b5f82601f830112611c6e57611c6d611b5b565b5b8135611c7e848260208601611c19565b91505092915050565b5f60208284031215611c9c57611c9b611599565b5b5f82013567ffffffffffffffff811115611cb957611cb861159d565b5b611cc584828501611c5a565b91505092915050565b7f4e487b71000000000000000000000000000000000000000000000000000000005f52602160045260245ffd5b60048110611d0c57611d0b611cce565b5b50565b5f819050611d1c82611cfb565b919050565b5f611d2b82611d0f565b9050919050565b611d3b81611d21565b82525050565b5f602082019050611d545f830184611d32565b92915050565b5f604082019050611d6d5f830185611d32565b611d7a6020830184611d32565b9392505050565b7f4e487b71000000000000000000000000000000000000000000000000000000005f52601160045260245ffd5b5f611db8826115a1565b9150611dc3836115a1565b9250828201905080821115611ddb57611dda611d81565b5b92915050565b611dea8161177f565b82525050565b5f602082019050611e035f830184611de1565b92915050565b611e128161167f565b8114611e1c575f80fd5b50565b5f81519050611e2d81611e09565b92915050565b5f60208284031215611e4857611e47611599565b5b5f611e5584828501611e1f565b91505092915050565b5f611e68826115a1565b91507fffffffffffffffffffffffffffffffffffffffffffffffffffffffffffffffff8203611e9a57611e99611d81565b5b600182019050919050565b7f4e487b71000000000000000000000000000000000000000000000000000000005f52603260045260245ffd5b7f4e487b71000000000000000000000000000000000000000000000000000000005f52602260045260245ffd5b5f6002820490506001821680611f1657607f821691505b602082108103611f2957611f28611ed2565b5b50919050565b5f6040820190508181035f830152611f47818561184a565b9050611f5660208301846116b2565b9392505050565b5f819050815f5260205f209050919050565b5f6020601f8301049050919050565b5f82821b905092915050565b5f60088302611fb97fffffffffffffffffffffffffffffffffffffffffffffffffffffffffffffffff82611f7e565b611fc38683611f7e565b95508019841693508086168417925050509392505050565b5f611ff5611ff0611feb846115a1565b611a99565b6115a1565b9050919050565b5f819050919050565b61200e83611fdb565b61202261201a82611ffc565b848454611f8a565b825550505050565b5f90565b61203661202a565b612041818484612005565b505050565b5b81811015612064576120595f8261202e565b600181019050612047565b5050565b601f8211156120a95761207a81611f5d565b61208384611f6f565b81016020851015612092578190505b6120a661209e85611f6f565b830182612046565b50505b505050565b5f82821c905092915050565b5f6120c95f19846008026120ae565b1980831691505092915050565b5f6120e183836120ba565b9150826002028217905092915050565b6120fa826117f8565b67ffffffffffffffff81111561211357612112611b63565b5b61211d8254611eff565b612128828285612068565b5f60209050601f831160018114612159575f8415612147578287015190505b61215185826120d6565b8655506121b8565b601f19841661216786611f5d565b5f5b8281101561218e57848901518255600182019150602085019450602081019050612169565b868310156121ab57848901516121a7601f8916826120ba565b8355505b6001600288020188555050505b505050505050565b5f6020820190508181035f8301526121d8818461184a565b905092915050565b5f6040820190506121f35f830185611de1565b6122006020830184611738565b939250505056fea2646970667358221220747a25964d8334082ffe8ff2b7d387c7f049cef38c79d0cc27854e39096e820964736f6c63430008180033","linkReferences":{}},"methodIdentifiers":{"ADMIN_ROLE()":"75b238fc","DEFAULT_ADMIN_ROLE()":"a217fddf","FOUNDER_ROLE()":"c1e6f304","candidateIds(uint256)":"03016130","candidates(uint256)":"3477ee2e","determineWinner()":"33b16d93","fundCandidate(uint256)":"50203cbf","getAllCandidateIds()":"3e26a9b5","getCandidate(uint256)":"35b8e820","getCandidateCount()":"30a56347","getRoleAdmin(bytes32)":"248a9ca3","grantRole(bytes32,address)":"2f2ff15d","hasRole(bytes32,address)":"91d14854","registerCandidate(string)":"9eb88db6","renounceRole(bytes32,address)":"36568abe","revokeRole(bytes32,address)":"d547741f","setWorkflowStatus(uint8)":"577740b1","supportsInterface(bytes4)":"01ffc9a7","vote(uint256)":"0121b93f","voteNFT()":"4c38f708","voteStartTime()":"18024acc","workflowStatus()":"a1edffa2"},"id":41}